:100000000C9462000C948A000C948A000C948A0070
:100010000C948A000C948A000C948A000C948A0038
:100020000C948A000C948A000C948A000C948A0028
:100030000C948A000C948A000C948A000C948A0018
:100040000C94A8050C948A000C948A000C948A00E5
:100050000C948A000C948A000C948A000C948A00F8
:100060000C948A000C948A000000000024002700F1
:100070002A0000000000250028002B0000000000DE
:1000800023002600290004040404040404040202DA
:100090000202020203030303030301020408102007
:1000A0004080010204081020010204081020000012
:1000B0000007000201000003040600000000000029
:1000C00000002E0511241FBECFEFD8E0DEBFCDBF4C
:1000D00017E0A0E0B1E0E0E1FFE002C005900D9282
:1000E000A432B107D9F717E0A4E2B7E001C01D922E
:1000F000A033B107E1F710E0C4ECD0E004C02297D0
:10010000FE010E948207C23CD107C9F70E949905EF
:100110000C9486070C9400008BE284B91AB88FEF18
:100120008BB908950F931F93062F29982B9A2D981A
:1001300081E090E00E943C062D9A10E007FF02C08B
:100140002B9A01C02B982D9881E090E00E943C06EC
:100150002D9A1F5F183011F0000FF0CF299A1F91D0
:100160000F9108950F931F93062F29982B982D9880
:1001700081E090E00E943C062D9A10E007FF02C04B
:100180002B9A01C02B982D9881E090E00E943C06AC
:100190002D9A1F5F183011F0000FF0CF299A1F9190
:1001A0000F9108952F923F924F925F926F927F929C
:1001B0008F929F92AF92BF92CF92DF92EF92FF9277
:1001C0000F931F93DF93CF93CDB7DEB728970FB66A
:1001D000F894DEBF0FBECDBF6C010B831C83ED8294
:1001E000FE8273E8E72EF12CE21AF30A22E8222EAF
:1001F000312C241A350A20911301422F50E05A83E2
:10020000498390911401492E552480911501682E3F
:100210007724772767FD70956E517040669D400189
:10022000679D900C769D900C1124E2E1F1E08E0E1A
:100230009F1EF6018081092F0150B22EBA948823A7
:1002400009F475C0C60165E70E94B200C601622DBF
:100250000E949200020DC601602F0E949200C6010A
:1002600065E10E94B200C6016E2D0E949200BE0C94
:10027000C6016B2D0E949200C6016CE50E94B2007F
:100280001201089421083108EE24FF244AC0F40129
:100290008081AA24BB2400E8482E552437C0802F33
:1002A00090E084219521892B19F48D819E8102C0D3
:1002B0008B819C8198878F83202F2695822F90E0B9
:1002C00084219521892B19F47D801E8102C07B80B9
:1002D0001C81022F06956F81788594E0769567954D
:1002E0009A95E1F7C6010E9492001F708F81829556
:1002F000807F182BC601612F0E949200C601672DD6
:100300000E94920022E030E0A20EB31E49815A8181
:10031000A416B50620F20894811C911C0894E11CD7
:10032000F11CC1018E199F0997FFB1CF73C0C6019F
:100330006BE20E94B200C601622D0E949200020D83
:10034000C601602F0E949200C6016AE20E94B200BC
:10035000C6016E2D0E949200BE0CC6016B2D0E943C
:100360009200C6016CE20E94B200C3010197880DA1
:10037000991D7C010894E108F108481A590A45C002
:10038000F7018181AA24BB2401E0682E772435C0BF
:10039000802F90E086219721892B19F48D819E81F1
:1003A00002C08B819C811C01202F220F822F90E0A4
:1003B00086219721892B19F49D801E8102C09B8084
:1003C0001C81022F000FB10184E0769567958A9514
:1003D000E1F7C6010E9492001F70822D8295807FF6
:1003E000182BC601612F0E949200C601692D0E9440
:1003F000920022E030E0A20EB31E49815A81A41679
:10040000B50630F20894E108F108C2018E0D9F1D77
:1004100097FFB6CF28960FB6F894DEBF0FBECDBFBC
:10042000CF91DF911F910F91FF90EF90DF90CF90D0
:10043000BF90AF909F908F907F906F905F904F9004
:100440003F902F9008954F925F926F927F928F927C
:100450009F92AF92BF92CF92DF92EF92FF920F9353
:100460001F93CF93DF932C015B016A01E9013801EF
:10047000470180E190E0C80ED91E28960EC0C20147
:10048000A6019E01830174010E94D2002896C438FF
:10049000D1053CF40894A11CB11CF50160816623D0
:1004A00071F7DF91CF911F910F91FF90EF90DF9047
:1004B000CF90BF90AF909F908F907F906F905F9004
:1004C0004F900895AF92BF92CF92DF92EF92FF923A
:1004D0000F931F93CF93DF93EC018B0183E8E82EFA
:1004E000E21AF82EF41A88816B01A4E0D594C7941F
:1004F000AA95E1F75B01F4E0AA0CBB1CFA95E1F7C1
:10050000882359F1CE0165E70E94B200CE016F2D1C
:100510000E949200CE0164E80E949200CE0165E143
:100520000E94B200CE016E2D0E949200CE0162E8C0
:100530000E949200CE016CE50E94B200CE016C2DAB
:100540000E949200612F772767FD7A956A29CE0174
:100550000E949200CE01602F22C0CE016BE20E9469
:10056000B200CE016F2D0E949200CE016F2D0E942D
:100570009200CE016AE20E94B200CE016E2D0E946E
:100580009200CE016E2D0E949200CE016CE20E947C
:10059000B200CE016C2D0E949200CE016A2D0E9405
:1005A0009200DF91CF911F910F91FF90EF90DF901C
:1005B000CF90BF90AF9008952F923F924F925F924D
:1005C0006F927F928F929F92AF92BF92CF92DF9263
:1005D000EF92FF920F931F93DF93CF9300D000D041
:1005E00000D0CDB7DEB71C015B016A013A832983D5
:1005F0001C830B8327019801241B350B89819A8169
:10060000861B970B37FD04C061E0662E712C06C077
:10061000309521953F4F66246A94762C97FD04C04F
:1006200051E0852E912C06C0909581959F4F88248E
:100630008A94982C7901EE0CFF1C8C01000F111F7D
:10064000C101B2014A2D2C2D0E946202E016F10672
:100650003CF5C801959587959701281B390B3E837A
:100660002D8318C08D819E8197FD06C0C60CD71CB6
:10067000801B910B9E838D83A80CB91CED81FE819C
:10068000EE0DFF1DFE83ED83C101B2014A2D2C2D1D
:100690000E94620229813A81A216B30619F726C088
:1006A000C70195958795F801E81BF90BFE83ED834B
:1006B00018C02D813E8137FD06C0A80CB91C2E192B
:1006C0003F093E832D83C60CD71C8D819E81800FF0
:1006D000911F9E838D83C101B2014A2D2C2D0E9452
:1006E0006202EB81FC81CE16DF0619F726960FB663
:1006F000F894DEBF0FBECDBFCF91DF911F910F9158
:10070000FF90EF90DF90CF90BF90AF909F908F9031
:100710007F906F905F904F903F902F9008952F9211
:100720003F924F925F926F927F928F929F92AF9281
:10073000BF92CF92DF92EF92FF920F931F93CF93CE
:10074000DF933C01EB012A01590118018E2D46016E
:10075000813001F52617370724F46B01C21AD30A3A
:1007600015C06901C61AD70A11C0C301BE01A20192
:100770009E01810174010E94DC02AC16BD0614F4D6
:10078000219701C021960894C108D1081C141D04AA
:1007900064F318C0C301820176010E94DC02C30128
:1007A000BE01A101950181010E94DC02C301BE01CD
:1007B000A2019E010E94DC02C301B501A2019501C4
:1007C0000E94DC02DF91CF911F910F91FF90EF907B
:1007D000DF90CF90BF90AF909F908F907F906F9061
:1007E0005F904F903F902F900895FF920F931F932B
:1007F0008C01F62E61E80E94B200C8016F2D0E94A4
:100800009200C80165E20E94B2001F910F91FF9013
:100810000895CF92DF92EF92FF920F931F93CF93A1
:10082000DF93EC017B0188818823D9F0CE0165E755
:100830000E94B200CE0160E00E949200CE0163E807
:100840000E949200CE0165E10E94B200CE0160E0FC
:100850000E949200CE0163E80E949200CE016CE5F6
:100860001AC0CE016BE20E94B200CE0160E00E948D
:100870009200CE0163E80E949200CE016AE20E94DB
:10088000B200CE0160E00E949200CE0163E80E94B7
:100890009200CE016CE20E94B200C701B4E09595CF
:1008A0008795BA95E1F7C82E2F2D332727FD3A9566
:1008B000C701F4E0880F991FFA95E1F7D22ED82AE4
:1008C00000E010E0CE016C2D0E949200CE016D2D53
:1008D0000E949200CE016E2D0E9492000F5F1F4F6A
:1008E00081E20438180771F7109224071092250747
:1008F000DF91CF911F910F91FF90EF90DF90CF90FC
:1009000008950F931F938C01FC01608368EC70E0E5
:1009100080E090E00E9416062D982B988AE090E0E7
:100920000E943C06299A8AE090E00E943C062898A2
:1009300068EC70E080E090E00E941606289A68EC6F
:1009400070E080E090E00E9416062D9A2B9A8AE0D3
:1009500090E00E943C06C8016AEC0E94B200C80107
:100960006CE00E949200C80160E20E949200C801FF
:1009700060E00E949200C80161E00E949200C801FC
:100980006BEB0E94B200C80161E00E949200C801B6
:1009900061ED0E94B200C80164E90E94B200C80182
:1009A00061E10E94B200C80160E20E94B200C80189
:1009B0006FE00E949200C80163E00E94B200C8018B
:1009C00067EA0E94B200C8016CEB0E94B200C80145
:1009D00063E00E949200C80160E00E949200C8019A
:1009E00062E00E949200C8016AE30E94B200C8015E
:1009F00063E00E949200C80166E30E94B200C80151
:100A000060EC0E949200C80161E80E94B200C80137
:100A100064E20E949200C80163E00E949200C80153
:100A200065E20E94B200C80160E30E949200C80122
:100A300065E20E94B200C80160E00E94B20088EC4A
:100A400090E00E943C06C8016FEA0E94B200C80113
:100A500069E20E94B2001F910F91089586E297E02B
:100A60000E948C000895AF92BF92CF92DF92EF92D6
:100A7000FF920F931F9386E2A82E87E0B82EC50140
:100A80006AE070E04AE050E026E730E006E710E078
:100A9000EE24CC24DD240E948F03C50160E071E0C8
:100AA0004FE050E02FE030E00FE010E0EE24FF24B4
:100AB0000E942302C50164E071E049E150E029E1B0
:100AC00030E00E942302C5016BE071E043E250E098
:100AD00023E230E00E94230268EE73E080E090E0C1
:100AE0000E9416061F910F91FF90EF90DF90CF901C
:100AF000BF90AF9008950F931F938AE061E00E942A
:100B0000E1068AE068EC70E00E94810606E217E0E8
:100B1000C80160E070E00E948104C80168E20E94A0
:100B2000F503C80160E070E00E9409041F910F9175
:100B30000895CF93DF930E9446060E947B05C0E094
:100B4000D0E00E9433052097E1F30E940000F9CF26
:100B50001F920F920FB60F9211242F933F938F93F2
:100B60009F93AF93BF9380912B0790912C07A091F7
:100B70002D07B0912E0730912F070196A11DB11DB1
:100B8000232F2D5F2D3720F02D570196A11DB11D6C
:100B900020932F0780932B0790932C07A0932D076A
:100BA000B0932E078091270790912807A0912907DD
:100BB000B0912A070196A11DB11D8093270790933C
:100BC0002807A0932907B0932A07BF91AF919F915F
:100BD0008F913F912F910F900FBE0F901F901895FE
:100BE0009FB7F89420912707309128074091290753
:100BF00050912A0786B5A89B06C08F3F21F02F5F32
:100C00003F4F4F4F5F4F9FBF542F432F322F22270D
:100C1000280F311D411D511D82E0220F331F441F3B
:100C2000551F8A95D1F7B901CA010895EF92FF9235
:100C30000F931F93CF93DF937B018C010E94F005EC
:100C4000EB010EC00E94F0056C1B7D0B685E7340CB
:100C5000C8F30894E108F10801091109C851DC4FF3
:100C6000E114F1040105110569F7DF91CF911F919E
:100C70000F91FF90EF900895019739F0880F991F19
:100C8000880F991F02970197F1F70895789484B51A
:100C9000826084BD84B5816084BD85B5826085BD78
:100CA00085B5816085BDEEE6F0E08081816080835E
:100CB000E1E8F0E010828081826080838081816041
:100CC0008083E0E8F0E0808181608083E1EBF0E008
:100CD000808184608083E0EBF0E0808181608083AC
:100CE000EAE7F0E080818460808380818260808395
:100CF0008081816080838081806880831092C100C0
:100D000008951F93CF93DF93182FEB0161E00E94AA
:100D1000E106209709F44AC0CF3FD10509F449C044
:100D2000E12FF0E0E255FF4F84918330C1F0843031
:100D300028F4813051F08230B1F50CC0863019F1C1
:100D4000873049F1843079F514C084B5806884BD5A
:100D5000C7BD33C084B5806284BDC8BD2EC080913C
:100D60008000806880938000D0938900C0938800C1
:100D700024C080918000806280938000D0938B009B
:100D8000C0938A001AC08091B00080688093B00040
:100D9000C093B30012C08091B00080628093B00015
:100DA000C093B4000AC0C038D1051CF4812F60E0A4
:100DB00002C0812F61E00E944D07DF91CF911F910A
:100DC0000895CF93DF93482F50E0CA0186569F4F76
:100DD000FC0134914A575F4FFA018491882369F1ED
:100DE00090E0880F991FFC01E859FF4FA591B4913D
:100DF000FC01EE58FF4FC591D491662351F42FB7F3
:100E0000F8948C91932F909589238C9388818923D2
:100E10000BC0623061F42FB7F8948C91932F9095AA
:100E200089238C938881832B88832FBF06C09FB72B
:100E3000F8948C91832B8C939FBFDF91CF91089571
:100E4000833071F0843028F48130A1F0823021F5B4
:100E500014C08630B1F08730D1F08430E9F404C09A
:100E6000809180008F7703C0809180008F7D809378
:100E70008000089584B58F7702C084B58F7D84BDCE
:100E800008958091B0008F778093B000089580918D
:100E9000B0008F7D8093B0000895FF920F931F9351
:100EA000F62E482F50E0CA0182559F4FFC01249135
:100EB000CA0186569F4FFC0114914A575F4FFA01B1
:100EC00004910023C9F0222319F0822F0E942007E9
:100ED000E02FF0E0EE0FFF1FEE58FF4FA591B49109
:100EE0009FB7F894FF2021F48C911095812302C0C4
:100EF0008C91812B8C939FBF1F910F91FF90089530
:100F0000EE0FFF1F0590F491E02D0994F894FFCFA8
:100F100055494400537461747573004675636B6979
:100F20006E670008101000000000000000000000C4
:100F30000000000810100000000000000000000089
:100F400000000000000000000000000000000000A1
:100F50000000000000183C3C3C181818001818004D
:100F60000000000063636322000000000000000036
:100F700000000000000036367F3636367F363600F9
:100F80000000000C0C3E6361603E030343633E0CB3
:100F90000C000000000000006163060C18336300C1
:100FA0000000000000001C36361C3B6E66663B00ED
:100FB0000000000030303060000000000000000041
:100FC00000000000000C18183030303018180C00E9
:100FD0000000000000180C0C060606060C0C180099
:100FE0000000000000000042663CFF3C664200003A
:100FF00000000000000000181818FF181818000062
:101000000000000000000000000000000018181898
:1010100030000000000000000000FF0000000000A1
:101020000000000000000000000000000018180090
:1010300000000000000103070E1C3870E0C08000B3
:1010400000000000003E6363636B6B6363633E00FC
:1010500000000000000C1C3C0C0C0C0C0C0C3F00A5
:1010600000000000003E6303060C183061637F003F
:1010700000000000003E6303031E030303633E0001
:101080000000000000060E1E3666667F06060F0092
:1010900000000000007F6060607E030363733E0019
:1010A00000000000001C3060607E636363633E00EC
:1010B00000000000007F630306060C0C18181800DF
:1010C00000000000003E6363633E636363633E00B1
:1010D00000000000003E636363633F0303063C00BF
:1010E00000000000000000001818000000181800A0
:1010F0000000000000000000181800000018181878
:10110000300000000000060C18306030180C06009B
:101110000000000000000000007E00007E000000D3
:101120000000000000006030180C060C1830600051
:1011300000000000003E6363060C0C0C000C0C0069
:1011400000000000003E63636F6B6B6E60603E00EA
:101150000000000000081C366363637F6363630064
:1011600000000000007E3333333E333333337E00E0
:1011700000000000001E33616060606061331E008B
:1011800000000000007C36333333333333367C00C9
:1011900000000000007F3331343C343031337F00B5
:1011A00000000000007F3331343C343030307800B0
:1011B00000000000001E336160606F6363371D0034
:1011C0000000000000636363637F63636363630025
:1011D00000000000003C18181818181818183C00D7
:1011E00000000000000F06060606060666663C00C4
:1011F0000000000000733336363C3636333373005C
:1012000000000000007830303030303031337F0063
:10121000000000000063777F6B63636363636300B8
:1012200000000000006363737B7F6F67636363008C
:1012300000000000001C36636363636363361C00B8
:1012400000000000007E3333333E30303030780011
:1012500000000000003E6363636363636B6F3E06E0
:1012600007000000007E3333333E363633337300DD
:1012700000000000003E6363301C060363633E0011
:101280000000000000FFDB991818181818183C001F
:1012900000000000006363636363636363633E0095
:1012A000000000000063636363636363361C08002F
:1012B000000000000063636363636B6B7F3636007E
:1012C0000000000000C3C3663C18183C66C3C3009E
:1012D0000000000000C3C3C3663C181818183C0087
:1012E00000000000007F6343060C183061637F003C
:1012F00000000000003C30303030303030303C00F6
:10130000000000000080C0E070381C0E07030100E0
:1013100000000000003C0C0C0C0C0C0C0C0C3C00F5
:10132000000000081C366300000000000000000000
:10133000000000000000000000000000000000FFAE
:1013400000000018180C0000000000000000000061
:1013500000000000000000003C46063E66663B00C0
:1013600000000000007030303C36333333336E0001
:1013700000000000000000003E63606060633E000B
:1013800000000000000E06061E36666666663B001C
:1013900000000000000000003E63637E60633E00CA
:1013A00000000000001C3632307C303030307800D5
:1013B00000000000000000003B666666663E0666B0
:1013C0003C00000000703030363B33333333730061
:1013D00000000000000C0C001C0C0C0C0C0C1E007F
:1013E00000000000000606000E06060606066666F9
:1013F0003C000000007030303333363C363373002D
:1014000000000000001C0C0C0C0C0C0C0C0C1E0042
:1014100000000000000000006E7F6B6B6B6B6B00C8
:1014200000000000000000006E333333333333001C
:1014300000000000000000003E63636363633E0041
:1014400000000000000000006E333333333E3030C4
:1014500078000000000000003B666666663E0606F7
:101460000F000000000000006E3B33303030780089
:1014700000000000000000003E63380E03633E00E1
:1014800000000000000818187E181818181B0E001D
:1014900000000000000000006666666666663B00AD
:1014A0000000000000000000636336361C1C0800CA
:1014B00000000000000000006363636B6B7F360078
:1014C000000000000000000063361C1C1C36630096
:1014D000000000000000000063636363633F0306D5
:1014E0003C000000000000007F660C1830637F00A5
:1014F00000000000000E18181870181818180E00B8
:1015000000000000001818181818001818181818EB
:101510000000000000701818180E18181818700035
:1015200000000000003B6E00000000000000000012
:0415300000000000B7
:00000001FF
